:020000040000fa
:080000000001040000000000f3
:020000040000fa
:100200002fa0200000ff2000000188000000000057
:100210000c000700a0fc2000010020001f000700c8
:10022000000020000000e000020032000000020098
:1002300000000000ea050200000000000040da00b3
:100240000000fe004440a900e04320000000e00060
:100250000300320000002000a00188004440a800f4
:1002600000000600f03fb1000180b100060035003b
:10027000ee03090000000000403fb1000180b10022
:10028000fbff3d001000b000203fb0000200350031
:1002900000800900000000000000060091018800b5
:1002a000800078000000eb0015003700e28040007d
:1002b00032a0b4009101ba00e280400032a0b40044
:1002c0009102ba00e280400032a0b4000002eb00cc
:1002d000472bde00f507b200602ce10004003a0075
:1002e0000059eb008301e900fdff3e0004003700e8
:1002f0006128e100010032000082eb0004000700e9
:100300001101ba000200e000e8ff3a000000060018
:100310003159ba008301e9000c0032002159ba00ba
:100320008301e900080032000400e00003003a0005
:10033000e280400032a0b400f5ff370011d9ba00c6
:100340008301e900faff3a008100e800e180400003
:0803500032a0b4000000060019
:020000040000fa
:0200000401f009
:04000000e6ff000017
:020000040000fa
:0200000401f009
:04000400ff7f00007a
:020000040000fa
:0200000401f009
:040008007fff000076
:020000040000fa
:0200000401f009
:04001400f9ff0000f0
:020000040000fa
:10000800d40f0000d40f0000d40f0000d40f00005c
:10001800d40f0000d40f0000d40f0000d40f00004c
:10002800d40f0000d40f0000d40f0000d40f00003c
:10003800d40f0000d40f0000d40f0000d40f00002c
:10004800d40f0000d40f0000d40f0000d40f00001c
:10005800d40f0000d40f0000d40f0000d40f00000c
:10006800d40f0000d40f0000d40f0000d40f0000fc
:10007800d40f0000d40f0000d40f0000d40f0000ec
:10008800d40f0000d40f0000d40f0000d40f0000dc
:10009800d40f0000d40f0000d40f0000d40f0000cc
:1000a800d40f0000d40f0000d40f0000d40f0000bc
:1000b800d40f0000d40f0000d40f0000d40f0000ac
:1000c800d40f0000d40f0000d40f0000d40f00009c
:1000d800d40f0000d40f0000d40f0000d40f00008c
:1000e800d40f0000d40f0000d40f0000d40f00007c
:0800f800d40f0000d40f00003a
:020000040000fa
:10010800d40f0000d40f0000d40f0000d40f00005b
:10011800d40f0000d40f0000d40f0000d40f00004b
:10012800d40f0000d40f0000d40f0000d40f00003b
:10013800d40f0000d40f0000d40f0000d40f00002b
:10014800d40f0000d40f0000d40f0000d40f00001b
:10015800d40f0000d40f0000d40f0000d40f00000b
:10016800d40f0000d40f0000d40f0000d40f0000fb
:10017800d40f0000d40f0000d40f0000d40f0000eb
:10018800d40f0000d40f0000d40f0000d40f0000db
:10019800d40f0000d40f0000d40f0000d40f0000cb
:1001a800d40f0000d40f0000d40f0000d40f0000bb
:1001b800d40f0000d40f0000d40f0000d40f0000ab
:1001c800d40f0000d40f0000d40f0000d40f00009b
:1001d800d40f0000d40f0000d40f0000d40f00008b
:1001e800d40f0000d40f0000d40f0000d40f00007b
:0801f800d40f0000d40f000039
:020000040000fa
:100358004879000070650000725400006572000062
:100368006d6900006e6100006c0a000039360000fb
:10037800303000002c200000382c0000204e0000f7
:100388002c2000003100000050720000657300004e
:1003980073200000656e0000746500007220000084
:1003a8006f6e00000a6b000065790000626f000044
:1003b8006172000064200000746f00002065000076
:1003c80078690000740000000d0a00000a5400005b
:1003d800686100006e6b000073200000666f00000b
:1003e8007220000075730000696e0000672000002d
:1003f80043790000747200006f6e00002054000002
:1004080065630000686e00006f6c00006f67000095
:100418006965000073200000707200006f640000be
:1004280075630000740d00000a000000507200009f
:100438006573000073200000616e000079200000e1
:100448006b650000792000006f6e0000206b0000d3
:1004580065790000626f000061720000642000008e
:10046800746f000020640000656d00006f2e0000ae
:100478000d0a0000004900007420000077690000a0
:100488006c6c0000206200006520000065630000bd
:10049800686f000020620000616300006b200000ac
:1004a800746f000020480000797000006572000039
:1004b80054650000726d0000696e0000616c0000f8
:1004c8002e0d00000a000000507200006573000045
:1004d80073200000656e0000746500007220000043
:1004e800746f00002065000078690000742e000019
:1004f8000d0a00000a000000202000002020000053
:100508002043000079740000726f00006e0a00003a
:100518002020000054650000636800006e6f000032
:100528006c6f000067690000657300000020000020
:1005380020200000205300004b64000073340000aa
:10054800304100000a2000002064000073500000c1
:1005580049430000333000004634000030310000c9
:1005680033000000312e00002054000065730000a5
:1005780074200000416c00006c000000312d000068
:100588004d6500006e7500002c2000002032000030
:100598002d3e00005465000073740000004f0000f9
:1005a800004600000047000000420000003c000038
:1005b800003e0000003200003a20000055410000d3
:1005c80052540000312000004f4600004600000051
:1005d800323a00002055000041520000543100001a
:1005e800204f00004e000000312d00004d65000036
:1005f8006e7500002c200000203200002d3e000007
:100608005345000054000000333a00002055000014
:1006180041520000543100002042000052410000c5
:100628004b450000003300003a200000554100000f
:100638005254000031200000474f000000340000f1
:100648003a200000554100005254000031200000bb
:100658004343000057000000343a000020550000d2
:1006680041520000543100002043000057000000b0
:10067800353a000020550000415200005432000075
:10068800204f000046460000003500003a200000d8
:100698005541000052540000322000004f4e000027
:1006a800003600003a200000554100005254000076
:1006b8003220000042520000414b0000450000007b
:1006c800363a000020550000415200005432000024
:1006d800204700004f000000373a00002055000076
:1006e80041520000543200002043000043570000ec
:1006f800003700003a200000554100005254000025
:100708003220000043570000003800003a20000063
:10071800537400006f700000204100004c4c000032
:100728000054000065730000742000005377000037
:1007380069740000636800006573000000500000e1
:1007480072650000737300002053000057310000e9
:100758000053000057320000206400006574000058
:100768006563000074650000642c000020450000eb
:10077800727200006f7200002100000050720000c9
:10078800657300007320000053570000320000001a
:1007980053570000312000006465000074650000b4
:1007a80063740000656400002c200000457200009e
:1007b800726f00007221000000530000776900008a
:1007c8007463000068650000732000005061000039
:1007d800737300002100000054650000737400006a
:1007e800204c000045440000730000004c45000008
:1007f80044310000204f00004e0000004c4500002e
:1008080044310000204f000046460000004c000024
:1008180045440000322000004f4e0000004c00000c
:1008280045440000322000004f460000460000000a
:100838004c45000044310000204200004c490000b3
:100848004e4b0000004c00004544000032200000e0
:10085800424c0000494e00004b0000004c4500008f
:1008680044730000205000006173000073210000f1
:100878000053000057310000207400006573000029
:10088800742000005541000052540000310a000055
:10089800436f00006e6e0000656300007420000066
:1008a800554300003030000041000000545800005b
:1008b80020530000656c000065630000746f000041
:1008c800723d000054580000310a000052580000e0
:1008d80020530000656c000065630000746f000021
:1008e800723d000052580000310000000d0a00005f
:1008f8000a440000656d00006f20000055410000ab
:1009080052540000312000006f6e00002053000098
:100918004b64000073340000304100002e2e0000ac
:100928002e0d00000a0000000d0a00000a55000004
:10093800415200005431000020440000656d000061
:100948006f200000436f00006d7000006c650000b0
:1009580074650000642e00000d0a000000550000b8
:100968004152000054310000205000006173000023
:10097800732100000053000057310000207400006c
:1009880065730000742000005541000052540000b7
:10099800320a0000436f00006e6e000065630000bd
:1009a8007420000055430000303000004100000072
:1009b8005458000020530000656c00006563000077
:1009c800746f0000723d000054580000320a0000a5
:1009d8005258000020530000656c00006563000059
:1009e800746f0000723d0000525800003200000091
:1009f8000d0a00000a440000656d00006f20000029
:100a08005541000052540000322000006f6e000073
:100a1800205300004b640000733400003041000094
:100a28002e2e00002e0d00000a0000000d0a000006
:100a38000a550000415200005432000020440000d2
:100a4800656d00006f200000436f00006d700000ae
:100a58006c65000074650000642e00000d0a00003b
:100a680000550000415200005432000020500000a0
:100a7800617300007321000000530000573100002b
:100a880020740000657300007420000055410000c8
:100a980052540000314100000a4300006f6e00000c
:100aa8006e650000637400002055000043300000ac
:100ab8003041000000540000582000005365000039
:100ac8006c650000637400006f7200003d54000004
:100ad80058310000410a000052580000205300001d
:100ae800656c000065630000746f0000723d0000d3
:100af8005258000031410000000d00000a0a0000b1
:100b0800446500006d6f0000205500004152000050
:100b180054310000204100006c7400006572000030
:100b28006e6100007469000076650000206f0000a7
:100b38006e200000534b0000647300003430000046
:100b4800412e00002e2e00000d0a0000000d0000ae
:100b58000a0a0000554100005254000031200000ec
:100b6800416c000074650000726e00006174000042
:100b78006976000065200000446500006d6f000084
:100b8800204300006f6d0000706c00006574000069
:100b9800656400002e0d00000a00000055410000a9
:100ba8005254000031200000416c000074650000c0
:100bb800726e00006174000069760000650a00002a
:0c0bc80050610000737300002100000069
:020000040000fa
:100bd4001c00fa000040eb00404f98000000eb00be
:100be400201688000000eb00501688000000eb007f
:100bf400801688000000eb00b01688000000eb00af
:100c0400101788000000eb0000168800c162a800dd
:100c14000000eb00301688000000eb00601688002e
:100c24000000eb0090168800d302a8000000eb003f
:100c3400f016880020c0b3004f010700800c20008c
:100c4400c104070075030700850307000028280076
:100c5400a4030700c05d2000bb0407008003070055
:100c6400b02928009f030700c05d2000b6040700d8
:100c7400d642a900d662a9008601070010c0b300bd
:100c8400404f98000000eb00500798000000eb0074
:100c9400400798000000eb00300798000000eb00cc
:100ca400200798000000eb00100798000000eb00fc
:100cb400000f7800250407004e04070000003700e9
:100cc4004e4890000080fb00700798007e00900062
:100cd400e40f50008f0032007e009000e40f5000bb
:100ce4000a003c007e009000e20f500051003200e8
:100cf4007e009000e20f50006a003c007e009000ed
:100d0400e10f50000e003200080137007e00900011
:100d1400e60f5000b70032007e009000e60f50004e
:100d2400980035007e009000e70f5000cd0032009f
:100d34007e009000e80f5000e4003200fb00370012
:100d4400602b28001b010700202c28003501070018
:100d5400d5c2bf00614060000004e000f3003a0027
:100d6400d5c2bf00614060000004e000fcff320017
:100d74005e009000e10f500003003a00302d28007f
:100d84005704070002003700502d280054040700c0
:100d94004e009000e10f500003003a00702d28002f
:100da4004f04070002003700902d28004c04070070
:100db4003e009000e10f500003003a00b02d2800df
:100dc4004704070002003700d02d28004404070020
:100dd4002e009000e10f500003003a00302d28004f
:100de4004c04070002003700502d28004904070076
:100df4001e009000e10f500003003a00702d2800ff
:100e04004404070002003700902d28004104070025
:100e1400100020009e0f100003003a00b02d28009f
:100e24003c040700c1003700d02d28003904070016
:100e3400be0037005e0090000000e00003003a00ae
:100e4400f02d2800db00070002003700c02e280028
:100e5400d8000700802f2800f2000700d5c2bf0089
:100e6400614060000004e000b0003a00d5c2bf0059
:100e7400614060000004e000fcff32000000eb0071
:100e8400000f98005e0090000000e00002003a00ad
:100e940010002000000f98000e08900050079800e2
:100ea400a20037004e0090000000e00003003a006a
:100eb40080302800bf00070002003700703128008e
:100ec400bc000700802f2800d6000700d5c2bf0051
:100ed400614060000004e00094003a00d5c2bf0005
:100ee400614060000004e000fcff32000000eb0001
:100ef400100f98004e0090000000e00002003a003d
:100f040010002000100f98001e0890004007980061
:100f1400860037003e0090000000e00003003a0025
:100f240030322800a30007000200370000332800f5
:100f3400a0000700802f2800ba000700d5c2bf0018
:100f4400614060000004e00078003a00d5c2bf00b0
:100f5400614060000004e000fcff32000000eb0090
:100f6400200f98003e0090000000e00002003a00cc
:100f740010002000200f98002e08900030079800e1
:100f84006a0037002e0090000000e00003003a00e1
:100f9400c03328008700070002003700903428007f
:100fa40084000700802f28009e000700d5c2bf00e0
:100fb400614060000004e0005c003a00d5c2bf005c
:100fc400614060000004e000fcff32000000eb0020
:100fd400300f98002e0090000000e00002003a005c
:100fe40010002000300f98003e0890002007980061
:100ff4004e0037001e0090000000e00003003a009d
:10100400503528006b0007000200370040362800e6
:1010140068000700802f280082000700d5c2bf00a7
:10102400614060000004e00040003a00d5c2bf0007
:10103400614060000004e000fcff32000000eb00af
:10104400400f98001e0090000000e00002003a00eb
:1010540010002000400f98004e08900010079800e0
:10106400320037001e00e00003003a000037280079
:101074005000070002003700d03728004d00070059
:10108400802f280067000700d5c2bf0061406000c0
:101094000004e00025003a00d5c2bf0061406000b2
:1010a4000004e000fcff32000000eb00500f980049
:1010b4001e00e00002003a0010002000500f9800cb
:1010c4005e089000000f7800180037009038280060
:1010d40038000700202c280052000700d5c2bf00aa
:1010e400614060000004e00010003a00d5c2bf0077
:1010f400614060000004e000fcff3200502d280035
:1011040077030700902d280075030700b02d2800f1
:1011140073030700502d28007e030700902d28003c
:101124007c030700b02d28007a030700c3c2bf0068
:10113400684060000004e000e1fe3a004e48900080
:101144000040e800404f98004e489000e84f50009f
:101154000200360010c0b300404f9800c3c2bf0065
:10116400684060000004e000fcff320010c0b300df
:1011740001000700d2fe37000200fa00004f780099
:1011840006003700e2c2a800200320006e03070017
:10119400e2c2a900200320006b0307001e4fe900f0
:1011a40000c0eb009e4f1000f6ff3a000080fa00ea
:1011b400000006000400fa00100798000040eb004d
:1011c400004f78002c0207001e0090004502070023
:1011d400040037001e4fe8001e0090000000e800e5
:1011e400100798001e009000104078000004e000f2
:1011f400f8ff3a00f0c0b3009e4f100007003e0015
:101204000300370000c2b3002f0207001e4fe8009e
:10121400f0c0b3009e4f1000faff36000080fa00c1
:10122400000006000400fa00100798000040eb00dc
:10123400004f7800160207001e00900029020700e4
:10124400040037001e4fe8001e0090000000e80074
:10125400100798001e009000104078000004e00081
:10126400f8ff3a00f0c0b3009e4f100007003e00a4
:101274000300370000c2b300130207001e4fe8004a
:10128400f0c0b3009e4f1000faff36000080fa0051
:10129400000006000000fa00f101070050392800a0
:1012a40010020700803e200027030700303a280080
:1012b400c0ff0700c3c2bf00684060000004e00034
:1012c400fcff3a00d5c2bf00614060000004e000aa
:1012d40004003a00e2010700d03a280001020700a6
:1012e400ffff3700c3c2bf00684060000004e00095
:1012f400fcff320010c0b3009fff0700d8010700b5
:10130400203c2800f7010700d5c2bf0061406000ff
:101314000004e000fcff3a00c3c2bf006840600064
:101324000004e00004003a00cd010700c03c28009e
:10133400ec010700ffff3700d5c2bf006140600029
:101344000004e000fcff320020c0b3008aff070065
:10135400c3010700103e2800e2010700401f2000df
:10136400f90207000080fa00000006000200fa00fb
:101374000040eb00004f7800b9010700003f28004f
:10138400d8010700803e2000ef020700a03f28009c
:1013940088ff0700d642a800803e2000ea0207002a
:1013a4002040280083ff0700d642a900803e200089
:1013b400e5020700b04028007eff0700d662a800bf
:1013c400803e2000e00207003041280079ff07003a
:1013d400d662a900803e2000db020700c04128003d
:1013e40074ff07000040eb00004f78001100370045
:1013f400d6c2bf000080fb004200de0061406000f6
:1014040000c0ea0061406000614060004201dd000c
:10141400612d200091407800b0cfb30000c060007f
:1014240002407000d6e2b70060042000c602070044
:101434001e4fe80030c1b3009e4f1000ecff360091
:10144400d642a900401f2000bf02070070422800b6
:1014540058ff07000040eb00004f780011003700f0
:10146400d6c2bf000080fb004300de006140600084
:1014740000c0ea0061406000614060004301dd009b
:10148400612d20009140780070cfb30000c060004f
:1014940002407000d6e2b70060042000aa020700f0
:1014a4001e4fe80030c1b3009e4f1000ecff360021
:1014b400d662a900401f2000a302070020c0b30089
:1014c4002dff0700204328003aff0700401f20009b
:1014d4009d0207000080fa00000006000200fa00e6
:1014e4000040eb00004f7800300037005c0107003b
:1014f400d04328007b0107000040eb00004f780038
:1015040007003700c3c2bf00684060000004e00069
:1015140006003200e00120008b0207001e4fe800a5
:1015240010c3b3009e4f1000f6ff36004c010700b5
:10153400a04528006b0107000040eb00004f780035
:1015440007003700c3c2bf00684060000004e00029
:1015540006003200e00120007b0207001e4fe80075
:1015640010c3b3009e4f1000f6ff36003c01070085
:10157400c01a28005b0107000040eb00004f780010
:1015840007003700c3c2bf00684060000004e000e9
:1015940006003200e00120006b0207001e4fe80045
:1015a40010c3b3009e4f1000f6ff3600c3c2bf0045
:1015b400684060000004e000ccff3a00c3c2bf00f2
:1015c400684060000004e000fcff3200df01070017
:1015d40023010700801c280042010700c0c0b3009b
:1015e40017020700801e28003d020700a0472800bc
:1015f4003b020700a021280039020700f02328003d
:101604003702070080262800350207002002070061
:1016140000e8b700d6c2bf000080fb004200de0035
:101624006140600000c0ea00614060006140600009
:101634004201dd00612d200091407800b0cfb3005d
:1016440000c0600002407000d6e2b70000c8bf00ce
:10165400fb01070000c8bf00ed4f5000030032003b
:1016640000c8bf00ea4f5000e8ff3a008049280054
:101674001b020700d642a90020c0b300befe07002b
:10168400f7000700304b280016010700401f200018
:101694002d0207000080fa00000006000200fa0094
:1016a4000040eb00004f780030003700ec000700ea
:1016b400f04b28000b0107000040eb00004f7800be
:1016c40007003700c3c2bf00684060000004e000a8
:1016d40006003200e00120001b0207001e4fe80054
:1016e40010c3b3009e4f1000f6ff3600dc00070065
:1016f400c04d2800fb0007000040eb00004f7800bd
:1017040007003700c3c2bf00684060000004e00067
:1017140006003200e00120000b0207001e4fe80023
:1017240010c3b3009e4f1000f6ff3600cc00070034
:10173400c01a2800eb0007000040eb00004f7800bf
:1017440007003700c3c2bf00684060000004e00027
:1017540006003200e0012000fb0107001e4fe800f4
:1017640010c3b3009e4f1000f6ff3600c3c2bf0083
:10177400684060000004e000ccff3a00c3c2bf0030
:10178400684060000004e000fcff3200990107009b
:10179400b3000700801c2800d2000700c0c0b300bb
:1017a400b1010700801e2800da010700c04f28009d
:1017b400d8010700a0212800d6010700f023280043
:1017c400d401070080262800d2010700ba010700cf
:1017d40000e8b700d6c2bf000080fb004300de0073
:1017e4006140600000c0ea00614060006140600048
:1017f4004301dd00612d20009140780070cfb300db
:1018040000c0600002407000d6e2b70000c8bf000c
:101814009501070000c8bf00ed4f500003003200df
:1018240000c8bf00ea4f5000e8ff3a00a05128006a
:10183400b8010700d662a90020c0b3004efe07001d
:101844008700070050532800a6000700401f20000f
:10185400bd0107000080fa00000006000200fa0043
:101864000040eb00004f7800300037007c00070098
:10187400105428009b0007000040eb00004f780044
:1018840007003700c3c2bf00684060000004e000e6
:1018940006003200e0012000ab0107001e4fe80003
:1018a40010c3b3009e4f1000f6ff36006c00070013
:1018b400f05528008b0007000040eb00004f780033
:1018c40007003700c3c2bf00684060000004e000a6
:1018d40006003200e00120009b0107001e4fe800d3
:1018e40010c3b3009e4f1000f6ff36005c000700e3
:1018f400c01a28007b0007000040eb00004f78006e
:1019040007003700c3c2bf00684060000004e00065
:1019140006003200e00120008b0107001e4fe800a2
:1019240010c3b3009e4f1000f6ff3600c3c2bf00c1
:10193400684060000004e000ccff3a00c3c2bf006e
:10194400684060000004e000fcff3200140107005e
:1019540043000700801c280062000700c0c0b300d9
:1019640037010700801e28005d0107001058280079
:101974005b010700a021280059010700f02328007b
:101984005701070080262800550107004001070081
:1019940000e8b700d6c2bf000080fb004200de00b2
:1019a4006140600000c0ea00614060006140600086
:1019b4004201dd00612d200091407800b0cfb300da
:1019c40000c0600002407000d6e2b70000c8bf004b
:1019d4001b01070000c8bf00ed4f50000300320098
:1019e40000c8bf00ea4f5000e8ff3a00b05a280090
:1019f4003b010700d642a90020c0b300defd07006a
:101a040017000700205d280036000700401f200053
:101a14004d0107000080fa00000006000000fa00f3
:101a240010c0b300a8000700f00020004601070022
:101a340081c3b3000040eb008e00070061c0b30017
:101a44000040eb008b000700c1c0b3000040eb0076
:101a540088000700020007000080fa00000006006a
:101a64000000fa0011c0b3000040eb008100070041
:101a74000080fa00000006000000fa0021c0b30054
:101a84000040eb007b0007000080fa000000060025
:101a94000000fa0001ccb3000040eb007500070021
:101aa4000080fa00000006000200fa00004f7800ef
:101ab40000c8b3009e4070000040eb006d000700ba
:101ac4000080fa00000006000200fa00004f7800cf
:101ad4009e40780010c0b300660007000080fa0042
:101ae400000006000200fa00000f78000e00370024
:101af4001e00780010407800ea4f500004003200c5
:101b04001e00780010407800ed4f500002003a00ab
:101b1400dfff0700030037001e0078001040780044
:101b2400e9ff07001e0fe8001e007800104078004f
:101b34000004e000eeff3a000080fa000000060016
:101b44000e00fa00204f9800610798000e017800fb
:101b54006000b8000089be00640141006000b80064
:101b64000089be00640141000000eb000009780018
:101b74006e00900002712200110009000280d8005a
:101b8400400798006e0090000271220011000900c5
:101b94000280d8008000fd00300798003e009000cd
:101ba400823e2000110009000280d8008000fd0060
:101bb400200798003e009000823e2000110009009a
:101bc4000280d800300798002e00900042062000c2
:101bd400110009000280d8008000fd001007980061
:101be4002e00900042062000110009000280d80057
:101bf400200798001e009000a20020001100090098
:101c04000280d8008000fd00000f78001e009000c4
:101c1400a2002000110009000280d80010079800db
:101c24002e489000e54f50000d00360050c0b30020
:101c3400204f98000a0037002e4890000080fb00d7
:101c44000000e9000000400060007f000043b00095
:101c54009dff07002e4890000040e900204f9800a7
:101c64002e4890000004e000f3ff3a000080fa00e0
:101c7400000006000200fa00004f780011479800a7
:101c84001e4078001e0007001e4090002900070037
:101c940010c0b3000c00070010002000aa000700c9
:101ca4000040eb000800070020002000a600070009
:101cb4000040eb00120007000040eb001d0007008d
:101cc4000080fa00000006000200fa00004f7800cd
:101cd4009e40780061c060006140600000414000a7
:101ce400012e200091407800d0cfb30000c06000e6
:101cf40002407000e0e2b7000080fa000000060035
:101d04000200fa00004f78009e40780061c0600035
:101d140061416000012e200091407800e0cfb300c3
:101d240000c0600002407000e0e2b7000080fa00ea
:101d3400000006000200fa00004f78001e80fb003d
:101d4400401688000080fa00000006000000fa0037
:101d540010082000a01088000d42a9000ec2bf0088
:101d6400f043b2000ee2b7008109200091407800f0
:101d7400f0c8b30000c0600001c4b30001407000ab
:101d840098e0b7000e22a9008520a9008d20a900a3
:101d94000de2a8000f42a8000080fa00000006002f
:101da4000000fa0010082000a01088000d42a800ce
:101db4000ec2bf00f043b2000ee2b700810920005a
:101dc40091407800f0c8b30000c0600001c4b300c3
:101dd4000140700098e0b7000e22a9008520a900f8
:101de4008d20a9000de2a8000f42a8000080fa008f
:101df400000006000000fa0010082000f01088001f
:101e040018c2bf00f043b20018e2b700010a200074
:101e14009140780080cfb30000c060005040b30010
:101e2400a0e0b7001822a9008700a9008f00a9002c
:101e340017e2a8001942a8000080fa00000006007a
:101e44000200fa00004f78000fc2bf006240600039
:101e54000004e000fcff3a001e80fb0080108800b4
:101e64000080fa00000006000200fa00004f78002b
:101e740019c2bf00624060000004e000fcff3a00a9
:101e84001e80fb00d01088000080fa0000000600cd
:101e94000000fa000ec2bf00614060000004e000d0
:101ea400fcff32000e22a900901080000080fb008d
:101eb4000080fa00000006000000fa0018c2bf000b
:101ec400614060000004e000fcff32001822a90019
:101ed400e01080000080fb000080fa000000060093
:101ee4000200fa00000f7800040037001e0078009a
:101ef40010407800d2ff07001e0fe8001e00780093
:101f0400104078000004e000f8ff3a000080fa0076
:101f1400000006000200fa00000f780004003700f9
:101f24001e00780010407800cfff07001e0fe80065
:101f34001e007800104078000004e000f8ff3a002a
:101f44000080fa00000006000200fa00000f78008a
:101f54001e0078006103b8008600780000e22400c7
:101f64000009b8006030b9000302780000024200a2
:101f740000e2240000b8b9000002420084017800a5
:101f84000200be00b6f807000080fa000000060058
:020000040000fa
:101f94000008000002000000020000000000000031
:041fa4000000000039
:020000040000fa
:041fa8000000fe0037
:00000001FF
